:020000040800F2
:100000000050002001250008ED0F0008EF0F000848
:10001000F10F0008F30F0008F50F000800000000C2
:10002000000000000000000000000000F70F0008C2
:10003000F90F000800000000FB0F0008FD0F00088A
:1000400049250008492500084925000849250008D8
:1000500049250008492500084925000849250008C8
:1000600049250008492500084925000849250008B8
:1000700049250008492500084925000849250008A8
:100080004925000849250008492500084925000898
:100090004925000849250008492500084925000888
:1000A0004925000849250008492500084925000878
:1000B00049250008492500080510000849250008C1
:1000C0004925000849250008492500084925000858
:1000D0004925000849250008492500084925000848
:1000E00049250008492500084925000800000000AE
:1000F0000000000000000000000000000000000000
:0C01000000000000000000005FF808F1A3
:10010C0070B5860747D0541E002A3ED00346CAB2AB
:10011C0001E0013C39D303F8012B9D07F9D1032CE5
:10012C002CD9CDB205EB05250F2C1A4605EB054550
:10013C0034D9A4F1100C2CF00F0603F1100EB644B8
:10014C004FEA1C1CC2E90055C2E902551032724537
:10015C00F8D10CF1010214F00C0F03EB021204F0B5
:10016C000F0C13D0ACF1040323F00303043313443A
:10017C0042F8045B9342FBD10CF003042CB1C9B2DE
:10018C001C4403F8011BA342FBD170BD644613460B
:10019C00002CF4D1F9E703461446C0E7A446E1E786
:1001AC0070B50F4B0F4DAB42A3EB050607D00024E7
:1001BC00B61055F8043B01349847A642F9D802F022
:1001CC00BFF9094D094B5E1BAB424FEAA60606D0A0
:1001DC00002455F8043B01349847A642F9D870BD69
:1001EC00C4250008C4250008C4250008C82500083B
:1001FC004FF0FF0C1CEAD0521EBF1CEAD15392EAFE
:10020C000C0F93EA0C0F6FD01A4480EA010C4002D9
:10021C0018BF5FEA41211ED04FF0006343EA501033
:10022C0043EA5111A0FB01310CF00040B1F5000F75
:10023C003EBF490041EAD3715B0040EA010062F124
:10024C007F02FD2A1DD8B3F1004F40EBC25008BF0E
:10025C0020F00100704790F0000F0CF0004C08BF2C
:10026C0049024CEA502040EA51207F3AC2BFD2F1F9
:10027C00FF0340EAC250704740F400004FF0000307
:10028C00013A5DDC12F1190FDCBF00F00040704741
:10029C00C2F10002410021FA02F1C2F1200200FA7F
:1002AC0002FC5FEA310040F1000053EA4C0308BF46
:1002BC0020EADC70704792F0000F00F0004C02BF97
:1002CC00400010F4000F013AF9D040EA0C0093F012
:1002DC00000F01F0004C02BF490011F4000F013B6C
:1002EC00F9D041EA0C018FE70CEAD15392EA0C0FDA
:1002FC0018BF93EA0C0F0AD030F0004C18BF31F045
:10030C00004CD8D180EA010000F00040704790F01A
:10031C00000F17BF90F0004F084691F0000F91F0BE
:10032C00004F14D092EA0C0F01D142020FD193EA84
:10033C000C0F03D14B0218BF084608D180EA01000C
:10034C0000F0004040F0FE4040F40000704740F0E8
:10035C00FE4040F44000704780F0004002E000BFD7
:10036C0081F0004142001FBF5FEA410392EA030F94
:10037C007FEA226C7FEA236C6AD04FEA1262D2EBDE
:10038C001363C1BFD218414048404140B8BF5B42E3
:10039C00192B88BF704710F0004F40F4000020F07C
:1003AC007F4018BF404211F0004F41F4000121F092
:1003BC007F4118BF494292EA030F3FD0A2F10102DC
:1003CC0041FA03FC10EB0C00C3F1200301FA03F11A
:1003DC0000F0004302D5494260EB4000B0F5000F3D
:1003EC0013D3B0F1807F06D340084FEA310102F1FC
:1003FC000102FE2A51D2B1F1004F40EBC25008BFAE
:10040C0020F0010040EA03007047490040EB000077
:10041C00013A28BFB0F5000FEDD2B0FA80FCACF178
:10042C00080CB2EB0C0200FA0CF0AABF00EBC250A5
:10043C0052421843BCBFD0401843704792F0000F93
:10044C0081F4000106BF80F400000132013BB5E7E6
:10045C004FEA41037FEA226C18BF7FEA236C21D05C
:10046C0092EA030F04D092F0000F08BF08467047C1
:10047C0090EA010F1CBF0020704712F07F4F04D18F
:10048C00400028BF40F00040704712F100723CBFA2
:10049C0000F50000704700F0004343F0FE4040F4CC
:1004AC00000070477FEA226216BF08467FEA23638A
:1004BC000146420206BF5FEA412390EA010F40F475
:1004CC00800070474FF0000304E000BF10F00043C1
:1004DC0048BF40425FEA000C08BF704743F09643A8
:1004EC0001464FF000001CE050EA010208BF7047C3
:1004FC004FF000030AE000BF50EA010208BF70474A
:10050C0011F0004302D5404261EB41015FEA010C5E
:10051C0002BF84460146002043F0B64308BFA3F156
:10052C008053A3F50003BCFA8CF2083AA3EBC25338
:10053C0010DB01FA02FC634400FA02FCC2F1200257
:10054C00BCF1004F20FA02F243EB020008BF20F08E
:10055C000100704702F1200201FA02FCC2F12002F4
:10056C0050EA4C0021FA02F243EB020008BF20EAE9
:10057C00DC7070474FF0FF3C06E000BF4FF0010C01
:10058C0002E000BF4FF0010C4DF804CD4FEA4002E1
:10059C004FEA41037FEA226C18BF7FEA236C11D02B
:1005AC0001B052EA530C18BF90EA010F58BFB2EBDE
:1005BC00030088BFC81738BF6FEAE17018BF40F05E
:1005CC00010070477FEA226C02D15FEA402C05D112
:1005DC007FEA236CE4D15FEA412CE1D05DF8040B97
:1005EC00704700BF844608466146FFE70FB5FFF72A
:1005FC00C9FF002848BF10F1000F0FBD4DF808EDE2
:10060C00FFF7F4FF0CBF012000205DF808FB00BFD2
:10061C004DF808EDFFF7EAFF34BF012000205DF82C
:10062C0008FB00BF4DF808EDFFF7E0FF94BF012079
:10063C0000205DF808FB00BF4DF808EDFFF7D2FF76
:10064C0094BF012000205DF808FB00BF4DF808EDB9
:10065C00FFF7C8FF34BF012000205DF808FB00BF86
:10066C004FEA4002B2F1FE4F0FD34FF09E03B3EBB3
:10067C0012620DD94FEA002343F0004310F0004FF3
:10068C0023FA02F018BF404270474FF00000704749
:10069C0012F1610F01D1420205D110F0004008BFE8
:1006AC006FF0004070474FF00000704710B5054CDC
:1006BC00237833B9044B13B10448AFF30080012302
:1006CC00237010BDD4000020000000004C25000851
:1006DC0008B5034B1BB103490348AFF3008008BDB9
:1006EC0000000000D80000204C2500082DE9F04146
:1006FC0086B0002402940394049405941F4B9A69C9
:10070C0042F004029A619A6902F004020092009A83
:10071C009A6942F008029A619B6903F008030193FD
:10072C00019BDFF85C8022463821404600F013FF25
:10073C00144D22460321284600F00DFF3823029366
:10074C000126039604940227059702A9404600F05F
:10075C00EDFD0323029303960494059702A9284602
:10076C0000F0E4FD4FF47E7302930394049602A907
:10077C00284600F0DBFD06B0BDE8F0810010024019
:10078C0000080140000C014008B50268034B9A4276
:10079C0000D008BD00F080FAFBE700BF0008004065
:1007AC0072B6FEE700B58DB02422002103A8FFF736
:1007BC00A7FC0023019302931248134A0260436082
:1007CC0083604FF6FF72C260036143618361032350
:1007DC000393012205920423079309920B9303A917
:1007EC0001F0EAFB50B900230193029301A90548DB
:1007FC0001F048FE20B90DB05DF804FBFFF7D0FF07
:10080C00FFF7CEFFC8010020002C014000B58DB0D1
:10081C002422002103A8FFF773FC00230193029309
:10082C0012484FF080420260436083604FF6FF72C3
:10083C00C2600361836103230393012205920423A5
:10084C00079309920B9303A901F0B6FB50B900234F
:10085C000193029301A9054801F014FE20B90DB0D3
:10086C005DF804FBFFF79CFFFFF79AFF8001002067
:10087C0000B58BB000230893099301930293039363
:10088C0004930593069307931A481B4A026043602E
:10089C00836040F67F42C2600361836101F060FBBC
:1008AC00F8B900230893099308A9124801F0EAFD4E
:1008BC00C8B960230193002202920392059201A908
:1008CC000C4801F003FC80B904220DEB020109482D
:1008DC0001F0FCFB58B9074800F03CFC0BB05DF88C
:1008EC0004FBFFF75DFFFFF75BFFFFF759FFFFF717
:1008FC0057FF00BF380100200004004000B587B04E
:10090C0000230293039304930593009301931348DC
:10091C00134A026041F6FF02426083606322C260A8
:10092C000361836101F0F0FA90B94FF480530293A4
:10093C0002A90A4801F044FC60B90023009301931A
:10094C006946064801F09EFD30B907B05DF804FB1E
:10095C00FFF726FFFFF724FFFFF722FFF000002030
:10096C000008004000B591B02822002106A8FFF72E
:10097C00C7FB002301930293039304930593022373
:10098C00069301220A9210220B920D934FF46013DE
:10099C000F9306A800F0FCFD80B90F2301930221F0
:1009AC000291002303934FF480620492059301A8F3
:1009BC0001F020F820B911B05DF804FBFFF7F0FE50
:1009CC00FFF7EEFE08B500F015FCFFF7CBFFFFF7C5
:1009DC008DFEFFF7E7FEFFF719FFFFF749FFFFF763
:1009EC008DFF00F0F9FA00F045FA0E4B0E4A1A6131
:1009FC000E4959610E4999619A640E4ADA640E4A9D
:100A0C001A65012283F84420002183F8451083F8ED
:100A1C007C2083F87D201A22DA625A6603221A702F
:100A2C00FEE700BF00000020000034433333B33E28
:100A3C000000D041295C8F3E00009041B0F5486F1A
:100A4C0004DA10F5486F04DD00B2704740F67F40C1
:100A5C0070470148704700BF81F3FFFF10B5044693
:100A6C000021FFF7D5FD08B9204610BD04F1004464
:100A7C00FAE738B505460846FFF7F0FF04460021B3
:100A8C00FFF7D0FD70B929462046FFF7C1FD38B9F4
:100A9C0004F1004004462946FFF7D8FD00B92C4666
:100AAC00204638BD0024FBE7F8B50446C069FFF7C3
:100ABC000DFD0546206AFFF709FD01462846FFF7A4
:100ACC004FFC05462169FFF74BFC0746E0682946B9
:100ADC00FFF748FCE060E068A169FFF7CAFFE0603F
:100AEC0020682946FFF784FB06466068E168FFF73B
:100AFC007FFB01463046FFF735FC0646A0683946B9
:100B0C00FFF776FB01463046FFF72CFC2561616947
:100B1C00FFF7AFFFFFF7A4FDFFF790FFF8BD000054
:100B2C00F8B5FFF7D3FC05461B4CD4F89010FFF733
:100B3C0017FC0746D4F88C002946FFF713FCC4F8C1
:100B4C008C00D4F88C00D4F89810FFF792FFC4F8FE
:100B5C008C00D4F880002946FFF74AFB0646D4F8EF
:100B6C008400D4F88C10FFF743FB01463046FFF7A6
:100B7C00F9FB0646D4F888003946FFF739FB0146E5
:100B8C003046FFF7EFFBC4F89050D4F89410FFF701
:100B9C0070FFFFF765FDF8BD000000200023C36067
:100BAC0003617047034B0022C3F88C20C3F89020DC
:100BBC00704700BF000000200B685B6A19B2C28D41
:100BCC0092B29B1A1BB2C185818590F8352002B177
:100BDC005B4243620362826A134483627047000083
:100BEC0008B5024650B10121054B1973003A18BFE4
:100BFC0001220821034800F0AEFC08BD0146F3E7D2
:100C0C000000002000080140F8B584460E46154649
:100C1C001846BCF832300FFA83FE9CF8342012B11F
:100C2C005B420FFA83FEBEF1000F16DD74460027FF
:100C3C000121184B1B7803F0FF02D3B10A46BDF813
:100C4C00181000F088FC3A46BDF82010079800F008
:100C5C0082FC8DB933685C63F8BDBEF1000F03DB19
:100C6C00002739463C46E4E7CEF100040127002179
:100C7C00DFE717460024E2E7042D04D0082D05D049
:100C8C0033681C64E8E733689C63E5E73368DC632E
:100C9C00E2E700BF0000002030B585B04F4CA368E0
:100CAC000133A3604E4904F11000FFF785FF4D4955
:100CBC0004F14800FFF780FF00F010F92378DBB255
:100CCC00022B35D0032B3DD0012B76D12546B4F821
:100CDC00400000B2FFF7B2FE0446B5F8780000B24F
:100CEC00FFF7ACFE3D4BA3F84240A3F87A001B780B
:100CFC00002B6FD10020FFF773FF3B4B3B4D3C4C5F
:100D0C0020220292019310220092002229462046B2
:100D1C00FFF77AFF374B01220292019302220092D5
:100D2C000422294604F13800FFF76EFF05B030BDF0
:100D3C002F4D2846FFF7B8FE044605F13800FFF7A3
:100D4C00B3FECFE72C4BDB781BB9244B93F8AC30BC
:100D5C00EBB9294B188900B2FFF7E2FE1F4DD5F80D
:100D6C009C20121AD5F89C300344C5F8A000C5F895
:100D7C00A420C5F8A830EA626B6605F11000FFF7F5
:100D8C0093FE044605F14800FFF78EFEAAE7134DCB
:100D9C000024C5F8A040C5F8A440C5F8A840EC62F2
:100DAC006C66FFF7FFFE05F11000FFF7F7FE05F18B
:100DBC004800FFF7F3FE204694E7FFF7F3FE0C4CD8
:100DCC002046FFF7EBFE04F13800FFF7E7FE0020AA
:100DDC00044687E70120FFF703FF8EE700000020A1
:100DEC00C8010020800100200008014038010020CB
:100DFC0010000020000C0140B0000020F0B585B0C0
:100E0C00184D00242C70EC626C66A5F84040A5F8D7
:100E1C007840A5F84240A5F87A4005F1100738460D
:100E2C00FFF7BCFE48352846FFF7B8FE2046FFF713
:100E3C00D7FE0D4B0D4E20220292019310220092F0
:100E4C00224631463846FFF7DFFE094B012202925B
:100E5C00019302220092042231462846FFF7D4FE69
:100E6C0005B0F0BD00000020000801403801002052
:100E7C00000C014070B5144E3C21304601F09CFA38
:100E8C00124D3C21284601F097FA114C00212046C6
:100E9C0001F024FA0421204601F020FA22680023F4
:100EAC0053639363326853622A685362094AD38747
:100EBC00A2F876309387A2F87430FFF79FFF0648AC
:100ECC0000F0F8FE70BD00BFC801002080010020BA
:100EDC003801002000000020F00000202DE9F04136
:100EEC000024264625462746A04606E00123A340BB
:100EFC00DBB243EA08080DE00134062C1DD8324B56
:100F0C0033F81410314B53F8240000F01DFB01286A
:100F1C00ECD000202E4B1B7913B1B0FA80F04009B5
:100F2C000028E9D00123A340DBB21F43294B33F93E
:100F3C0014301E440135EDB2DEE7254B83F80080FA
:100F4C005F709D703DB30122214BDA70002D36D0BD
:100F5C0096FBF5F636B200225A749A741B7C8BB150
:100F6C0007F00F030F2B18D0002307F07807782F0A
:100F7C0015D00022ABB1B2B9154B9E8A36B2012204
:100F8C005A749A74124BDE801E81114AD368013355
:100F9C00D360BDE8F0812A46D6E70123E5E70122BC
:100FAC00E8E7002AEED0002BECD1094B9E8AB6B2B2
:100FBC00764236B201225A74FF229A74E2E7044B4D
:100FCC0000225A749A74E0E77425000884250008FE
:100FDC00B00000206425000808B5FFF77FFF08BDAE
:100FEC00FEE7FEE7FEE7FEE7FEE770477047704757
:100FFC0008B500F011F908BD08B5024800F092FEE2
:10100C0008BD00BFF000002082B00E4B9A6942F080
:10101C0001029A619A6902F001020092009ADA695F
:10102C0042F08052DA61DB6903F080530193019B3B
:10103C00054A536823F0E06343F00073536002B039
:10104C00704700BF001002400000014000B589B09D
:10105C000023049305930693079303681F4A934256
:10106C0005D0B3F1804F1DD009B05DF804FB1C4BCB
:10107C009A6942F400629A619A6902F400620092E1
:10108C00009A9A6942F004029A619B6903F0040386
:10109C000193019B4FF44073049304A9114800F091
:1010AC0045F9E1E703F50433DA6942F00102DA614C
:1010BC00DA6902F001020292029A9A6942F0040281
:1010CC009A619B6903F004030393039B032304932A
:1010DC0004A9044800F02AF9C6E700BF002C01401F
:1010EC0000100240000801400268094B9A4200D0EF
:1010FC00704782B003F50333DA6942F00202DA6119
:10110C00DB6903F002030193019B02B0704700BF3F
:10111C000004004002680E4B9A4200D0704700B5A4
:10112C0083B003F50233DA6942F00402DA61DB6959
:10113C0003F004030193019B002201211E2000F007
:10114C00C3F81E2000F0D0F803B05DF804FB00BF1C
:10115C000008004000B587B000230293039304936A
:10116C00059302680D4B9A4202D007B05DF804FB60
:10117C0003F503339A6942F004029A619B6903F008
:10118C0004030193019BC0230293022303930323C3
:10119C00059302A9024800F0C9F8E6E700040040F4
:1011AC00000801407047000010B504460E4B1A7839
:1011BC004FF47A73B3FBF2F30C4A1068B0FBF3F004
:1011CC0000F0A0F868B90F2C01D901200AE0002228
:1011DC0021464FF0FF3000F077F8054B1C600020E3
:1011EC0000E0012010BD00BFCC000020C800002092
:1011FC00D000002008B5074A136843F010031360B1
:10120C00032000F04FF80F20FFF7CEFFFFF7FCFE96
:10121C00002008BD00200240034A1168034B1B78D4
:10122C000B441360704700BF10020020CC0000205C
:10123C00014B1868704700BF10020020002808DB23
:10124C000901C9B200F1604000F5614080F800135B
:10125C00704700F00F000901C9B2014B19547047D7
:10126C0014ED00E000B500F00700C0F1070CBCF174
:10127C00040F28BF4FF0040C031D062B0FD9C31EFF
:10128C004FF0FF3E0EFA0CF021EA000199400EFAE5
:10129C0003FE22EA0E0241EA02005DF804FB002381
:1012AC00EEE70000074AD36823F4E0631B041B0C31
:1012BC00000200F4E060034343F0BF6343F40033E7
:1012CC00D360704700ED00E010B50446054BD868BC
:1012DC00C0F30220FFF7C6FF01462046FFF7AEFF22
:1012EC0010BD00BF00ED00E0002807DB00F01F027E
:1012FC00400901239340024A42F82030704700BF56
:10130C0000E100E00138B0F1807F0BD24FF0E02318
:10131C005861054AF02182F82310002098610722B9
:10132C001A6170470120704700ED00E070B582B083
:10133C000024A446A1E07E4DAB4214D00CD8A5F5F8
:10134C008015AB420FD005F57025AB420BD0A5F53F
:10135C008015AB4210D106E0764DAB4203D005F5BB
:10136C008035AB4208D18B68002B50D0012B49D073
:10137C004261082400E0CC68BEF1FF0F49D8064654
:10138C004FEA8C0233680F25954023EA050304FAD3
:10139C0002F2134333604B6813F0805F6BD0664BE3
:1013AC009A6942F001029A619B6903F0010301936F
:1013BC00019B4FEA9C02951C604B53F825600CF086
:1013CC000305AD000F23AB4026EA03065C4B9842A5
:1013DC0026D003F58063984200F08C8003F580637F
:1013EC00984200F0898003F58063984216D004235C
:1013FC0017E0CC680434BFE7CC680834BCE7CC6891
:10140C000C34B9E702610824B6E70024B4E70424DD
:10141C00B2E7061DACF108029200B3E7032300E02B
:10142C000023AB4033430232444D45F822304B6825
:10143C0013F4801F62D0434A936843EA0E0393600F
:10144C004B6813F4001F5FD03E4AD36843EA0E0387
:10145C00D3604B6813F4003F5CD03A4A536843EABC
:10146C000E0353604B6813F4803F59D0354A136810
:10147C0043EA0E0313600CF1010C0B6833FA0CF207
:10148C0054D0012202FA0CF203EA020E32EA0303F0
:10149C00F1D14B68122B3FF64EAF122B3FF66CAFCF
:1014AC0001A555F823F000BF73130008831300083F
:1014BC00051400081714000885130008851300088C
:1014CC008513000885130008851300088513000890
:1014DC008513000885130008851300088513000880
:1014EC00851300088513000885130008FF130008F6
:1014FC000B140008012394E7022392E7114A936826
:10150C0023EA0E0393609BE70E4AD36823EA0E038B
:10151C00D3609EE70B4A536823EA0E035360A1E79E
:10152C00084A136823EA0E031360A4E702B070BDE7
:10153C000000221000003110001002400000014099
:10154C0000080140000401408368194201D00120C9
:10155C007047002070470AB10161704709040161AE
:10156C007047000082B0084B1B68084AA2FB03239B
:10157C005B0A00FB03F3019300BF019B5A1E01920F
:10158C00002BF9D102B07047C8000020D34D621077
:10159C00002800F0F18170B582B00446036813F0A6
:1015AC00010F2CD0994B5B6803F00C03042B1DD05E
:1015BC00964B5B6803F00C03082B12D06368B3F5F1
:1015CC00803F41D0002B55D103F1804303F5043308
:1015DC001A6822F480321A601A6822F480221A6087
:1015EC0037E08A4B5B6813F4803FE7D0874B1B686E
:1015FC0013F4003F03D06368002B00F0BF81236815
:10160C0013F0020F75D0814B5B6813F00C0F5FD099
:10161C007E4B5B6803F00C03082B54D02369002B22
:10162C0000F08A807A4B01221A60FFF701FE054612
:10163C00764B1B6813F0020F75D1FFF7F9FD401BB9
:10164C000228F5D903209EE1704A136843F48033D5
:10165C001360636843B3FFF7EBFD05466B4B1B68E8
:10166C0013F4003FCBD1FFF7E3FD401B6428F5D901
:10167C00032088E1B3F5A02F09D0644B1A6822F43B
:10168C0080321A601A6822F480221A60E1E703F1B2
:10169C008043A3F53C331A6842F480221A601A681E
:1016AC0042F480321A60D4E7FFF7C2FD0546574B6F
:1016BC001B6813F4003FA2D0FFF7BAFD401B64284F
:1016CC00F5D903205FE1514B5B6813F4803FA5D142
:1016DC004E4B1B6813F0020F03D02369012B40F013
:1016EC004F814A4A136823F0F803616943EAC10346
:1016FC001360236813F0080F33D0A369002B5CD060
:10170C00434B0122C3F88024FFF792FD05463F4B63
:10171C005B6A13F0020F21D1FFF78AFD401B0228F0
:10172C00F5D903202FE1394A136823F0F8036169D6
:10173C0043EAC1031360DCE7354B00221A60FFF764
:10174C0077FD0546314B1B6813F0020FD1D0FFF724
:10175C006FFD401B0228F5D9032014E10120FFF78F
:10176C0001FF236813F0040F00F09680274BDB6910
:10177C0013F0805F34D1254BDA6942F08052DA6184
:10178C00DB6903F080530193019B0125214B1B68FE
:10179C0013F4807F26D0E368012B3DD0002B53D16E
:1017AC0003F1804303F504331A6A22F001021A6232
:1017BC001A6A22F004021A6233E0154B0022C3F8B5
:1017CC008024FFF735FD0546104B5B6A13F0020FC2
:1017DC00C7D0FFF72DFD401B0228F5D90320D2E01E
:1017EC000025D3E70B4A136843F480731360FFF7AB
:1017FC001FFD0646074B1B6813F4807FCBD1FFF708
:10180C0017FD801B6428F5D90320BCE000100240B2
:10181C0000004242007000405F4A136A43F001032B
:10182C001362E36833B3FFF703FD06465A4B1B6A9A
:10183C0013F0020F2FD1FFF7FBFC801B41F2883312
:10184C009842F3D903209EE0052B09D0524B1A6A1B
:10185C0022F001021A621A6A22F004021A62E0E70C
:10186C004D4B1A6A42F004021A621A6A42F00102E3
:10187C001A62D6E7FFF7DCFC0646474B1B6A13F0EF
:10188C00020F08D0FFF7D4FC801B41F2883398423A
:10189C00F3D9032077E0E5B9E369002B72D03E4A17
:1018AC00526802F00C02082A56D0022B17D03B4B80
:1018BC0000221A66FFF7BCFC0446374B1B6813F07A
:1018CC00007F47D0FFF7B4FC001B0228F5D903209A
:1018DC0059E0314AD36923F08053D361DCE72F4BB5
:1018EC0000221A66FFF7A4FC05462B4B1B6813F06D
:1018FC00007F06D0FFF79CFC401B0228F5D9032083
:10190C0041E0236AB3F5803F1AD023494B6823F496
:10191C007413226A606A024313434B601F4B01220B
:10192C001A66FFF785FC04461B4B1B6813F0007FFF
:10193C000ED1FFF77DFC001B0228F5D9032022E015
:10194C00154A536823F40033A1680B435360DCE75A
:10195C00002018E0002016E0012B16D00E4B5B681F
:10196C0003F48031226A914211D103F47013626A3C
:10197C0093420ED1002006E001207047012002E0C6
:10198C00012000E0002002B070BD0120FBE7012027
:10199C00F9E70120F7E700BF0010024000004242C7
:1019AC000F4B5B6803F00C02082A01D00D487047FE
:1019BC00C3F383420C49885C13F4803F0BD0084B73
:1019CC005B68C3F34043094AD35C064A02FB00F050
:1019DC00B0FBF3F07047064B03FB00F0704700BF01
:1019EC000010024000127A00B4250008B02500084F
:1019FC0000093D00002800F0A08070B50D4604469B
:101A0C00524B1B6803F007038B420BD24F4A1368EF
:101A1C0023F007030B431360136803F007038B4297
:101A2C0040F08D80236813F0020F17D013F0040FD1
:101A3C0004D0474A536843F4E0635360236813F0BF
:101A4C00080F04D0424A536843F460535360404A31
:101A5C00536823F0F003A1680B435360236813F021
:101A6C00010F31D06368012B20D0022B25D0384ACE
:101A7C00126812F0020F64D035494A6822F0030252
:101A8C0013434B60FFF7D4FB0646314B5B6803F006
:101A9C000C036268B3EB820F16D0FFF7C9FB801BF7
:101AAC0041F288339842F0D9032045E0284A126865
:101ABC0012F4003FE0D101203EE0254A126812F0FA
:101ACC00007FD9D1012037E0204B1B6803F00703BE
:101ADC00AB420AD91D4A136823F007032B4313604A
:101AEC00136803F00703AB422DD1236813F0040FE6
:101AFC0006D0174A536823F4E063E1680B43536044
:101B0C00236813F0080F07D0114A536823F460536D
:101B1C00216943EAC1035360FFF742FF0C4B5B683A
:101B2C00C3F303130B4AD35CD8400B4B18600B4B1D
:101B3C001868FFF739FB002070BD012070470120A9
:101B4C00FAE70120F8E70120F6E700BF0020024089
:101B5C0000100240A0250008C8000020D000002082
:101B6C0030B4026A036A23F0010303624568836997
:101B7C0023F073030C681C4322F002028B6813439E
:101B8C000B4A904206D0456084614A684263036206
:101B9C0030BC704723F00803CA681A4322F00403D0
:101BAC0025F440754A692A438D691543EBE700BF5C
:101BBC00002C014030B4036A026A22F48072026283
:101BCC004468C26922F073020D68154323F4007354
:101BDC008A6843EA02230D4A904206D04460C561EC
:101BEC004A68C263036230BC704723F40063CA685E
:101BFC0043EA022323F4806324F440544A6944EA00
:101C0C0002148A6944EA0214E8E700BF002C014080
:101C1C0030B4036A026A22F4805202624468C269D8
:101C2C0022F4E6420D6842EA052223F400538D6843
:101C3C0043EA0533074DA84206D04460C2614A68A6
:101C4C000264036230BC704724F480444D6944EA5A
:101C5C008514F2E7002C014010B4036A046A24F0E6
:101C6C0001040462846924F0F00C4CEA021223F0A3
:101C7C000A030B438261036210BC704710B4036A01
:101C8C00046A24F010040462846924F4704C4CEA55
:101C9C00023223F0A00343EA01138261036210BCF9
:101CAC007047836823F070030B4343F00703836092
:101CBC007047000090F83D30DBB2012B27D1022396
:101CCC0080F83D300268D36843F00103D3600368A9
:101CDC00114A934210D0B3F1804F0DD0A2F594323B
:101CEC00934209D002F58062934205D01A6842F003
:101CFC0001021A60002070479A6802F00702062A57
:101D0C0007D01A6842F001021A60002070470120C7
:101D1C0070470020704700BF002C0140704770478F
:101D2C007047704770B504460368DE681D6915F08E
:101D3C00020F10D016F0020F0DD06FF002021A61D4
:101D4C000123037703689B6913F0030F5ED0FFF741
:101D5C00E6FF0023237715F0040F12D016F0040FC2
:101D6C000FD023686FF004021A61022323772368D3
:101D7C009B6913F4407F4FD02046FFF7D0FF002320
:101D8C00237715F0080F12D016F0080F0FD0236828
:101D9C006FF008021A61042323772368DB6913F0C0
:101DAC00030F40D02046FFF7BAFF0023237715F02E
:101DBC00100F12D016F0100F0FD023686FF0100216
:101DCC001A61082323772368DB6913F4407F31D031
:101DDC002046FFF7A4FF0023237715F0010F02D054
:101DEC0016F0010F2DD115F0800F02D016F0800FD8
:101DFC002FD115F0400F02D016F0400F31D115F055
:101E0C00200F02D016F0200F33D170BDFFF786FFE4
:101E1C002046FFF785FF9CE72046FFF77FFF204613
:101E2C00FFF77EFFABE72046FFF778FF2046FFF772
:101E3C0077FFBAE72046FFF771FF2046FFF770FFE8
:101E4C00C9E723686FF001021A612046FEF79CFC7B
:101E5C00C9E723686FF080021A61204600F049FB45
:101E6C00C7E723686FF040021A612046FFF759FF5D
:101E7C00C5E723686FF020021A61204600F038FB9A
:101E8C00C3E7000003681F4A90420AD0B0F1804FAC
:101E9C0007D0A2F59432904203D002F580629042B2
:101EAC0003D123F070034A681343164A90420AD0B8
:101EBC00B0F1804F07D0A2F59432904203D002F5D6
:101ECC008062904203D123F44073CA68134323F019
:101EDC0080034A69134303608B68C3620B68836297
:101EEC00084B98420AD001234361036913F0010F98
:101EFC0003D0036923F00103036170470B6903638B
:101F0C00F1E700BF002C014040B310B5044690F837
:101F1C003D30F3B1022384F83D30214651F8040BD7
:101F2C00FFF7B0FF012384F8463084F83E3084F884
:101F3C003F3084F8403084F8413084F8423084F8E3
:101F4C00433084F8443084F8453084F83D30002028
:101F5C0010BD80F83C30FFF7DDF8DBE7012070475F
:101F6C0040B310B5044690F83D30F3B1022384F829
:101F7C003D30214651F8040BFFF784FF012384F810
:101F8C00463084F83E3084F83F3084F8403084F892
:101F9C00413084F8423084F8433084F8443084F87B
:101FAC00453084F83D30002010BD80F83C30FFF700
:101FBC009BF8DBE701207047002856D070B50D4622
:101FCC00044690F83D30002B4AD0022384F83D3073
:101FDC002268936823F4804323F00703936021461F
:101FEC0051F8040BFFF74EFF21688B688A690E6A63
:101FFC002868184322F4407222F00302AB68D5F82B
:10200C0018C043EA0C23134323F47C4323F0FC0352
:10201C00EA68D5F81CC042EA0C221A432B6A1B034F
:10202C00D5F810C043EA0C13134326F022066A6855
:10203C006D6942EA05123243886021688B6123681E
:10204C001A62012384F8463084F83E3084F83F301D
:10205C0084F8423084F8433084F83D30002070BD61
:10206C0080F83C30FEF7F2FFAFE70120704700002C
:10207C0030B4036A026A22F0100202624468826978
:10208C0022F4E6420D6842EA052223F020038D6813
:10209C0043EA05130C4DA84206D0446082614A689D
:1020AC008263036230BC704723F08003CD6843EA3F
:1020BC00051323F0400324F440644D6944EA85047D
:1020CC008D6944EA8504E8E7002C014038B590F8A6
:1020DC003C30012B66D004460D46012380F83C3081
:1020EC000C2A5AD8DFE802F0075959591B5959598B
:1020FC003059595944000068FFF732FD2268936942
:10210C0043F0080393612268936923F004039361FD
:10211C002268936929690B43936100203EE00068B3
:10212C00FFF7A6FF2268936943F40063936122686A
:10213C00936923F48063936122689369296943EA64
:10214C0001239361002029E00068FFF733FD22682A
:10215C00D36943F00803D3612268D36923F00403E5
:10216C00D3612268D36929690B43D361002015E040
:10217C000068FFF74DFD2268D36943F40063D36117
:10218C002268D36923F48063D3612268D3692969F7
:10219C0043EA0123D361002000E00120002384F8EE
:1021AC003C3038BD0220FCE710B4846824F47F4C2A
:1021BC0042EA03220A4342EA0C02826010BC7047D6
:1021CC0090F83C30012B78D010B50446012380F8F0
:1021DC003C30022380F83D300268936823F47F433F
:1021EC0023F0770393600B68602B4CD023D8402BE3
:1021FC0054D011D8202B03D00AD80BB1102B05D1F9
:10220C0019462068FFF74DFD002028E0012026E04C
:10221C00302BF5D0012022E0502B0AD1CA68496836
:10222C000068FFF719FD50212068FFF73AFD0020E8
:10223C0015E0012013E0B3F5805F3AD0B3F5005FF1
:10224C0014D0702B37D1CB684A6889680068FFF7C7
:10225C00ABFF2268936843F077039360002001235F
:10226C0084F83D30002384F83C3010BDCB684A68BC
:10227C0089680068FFF798FF2268936843F48043ED
:10228C0093600020EBE7CA6849680068FFF7F6FC2A
:10229C0060212068FFF705FD0020E0E7CA68496867
:1022AC000068FFF7D9FC40212068FFF7FAFC0020FA
:1022BC00D5E70020D3E70120D1E70220704701F0D9
:1022CC001F014FF0010C0CFA01FC036A23EA0C030A
:1022DC000362036A8A4013430362704710B50446D5
:1022EC00084651BB94F83E30DBB2013B18BF0123CA
:1022FC00002B5BD1002839D1022384F83E30012217
:10230C0001462068FFF7DBFF23682A4A93423DD041
:10231C002368284A93423ED0B3F1804F3BD0A2F5BC
:10232C009432934237D002F58062934233D01A68CC
:10233C0042F001021A60002039E0042908D0082973
:10234C000DD094F84130DBB2013B18BF0123CFE72D
:10235C0094F83F30DBB2013B18BF0123C8E794F877
:10236C004030DBB2013B18BF0123C1E7042805D084
:10237C00082807D0022384F84130C0E7022384F8F0
:10238C003F30BCE7022384F84030B8E75A6C42F483
:10239C0000425A64BCE79A6802F00702062A07D08A
:1023AC001A6842F001021A60002000E0012010BD02
:1023BC000020FCE7002C014038B5044690F83E00A4
:1023CC00C0B294F83F3094F84220D2B294F843C093
:1023DC000D46B1B9012849D1012A48D1022384F80C
:1023EC003E3084F842307DB3042D39D001220021D7
:1023FC002068FFF764FF012204212068FFF75FFFCC
:10240C0027E0DBB25FFA8CFC042912D0012833D10F
:10241C00012B2CD1012A31D1BCF1010F30D1022377
:10242C0084F83E3084F83F3084F8423084F84330EE
:10243C00D9E7012B1CD1BCF1010F1BD1022384F86D
:10244C003F3084F84330CEE7012200212068FFF7AB
:10245C0036FF2268136843F001031360002006E086
:10246C00012204212068FFF72AFFF2E7012038BD82
:10247C000120FCE71846FAE70120F8E71846F6E7D2
:10248C001046F4E790F83C20012A2CD010B40346F7
:10249C00012280F83C20022280F83D20026850681E
:1024AC00946820F0700C086840EA0C0050601A68C0
:1024BC000E4882420AD0B2F1804F07D0A0F594307A
:1024CC00824203D000F58060824204D124F0800463
:1024DC00496821439160012283F83D20002083F854
:1024EC003C0010BC70470220704700BF002C01401C
:1024FC0070477047FEF756FE0B480C490C4A0023F8
:10250C0002E0D458C4500433C4188C42F9D3094A9D
:10251C00094C002301E013600432A242FBD3FDF707
:10252C003FFEFEF74FFA704700000020D400002059
:10253C00CC250008D400002014020020FEE7000087
:10254C00F8B500BFF8BC08BC9E467047F8B500BF94
:08255C00F8BC08BC9E46704764
:102564003200210010000000F0FFDFFFCEFF00006A
:10257400000200018000400020001000080000005C
:10258400000C0140000C0140000C0140000C014013
:10259400000C0140000C0140000C01400000000050
:1025A40000000000010203040607080901020000FC
:1025B40002030405060708090A0B0C0D0E0F101080
:0425C400DD06000828
:0425C800B906000848
:1025CC00010000000A0000000000000000000000F4
:1025DC00000034433333333F0000804000F0474564
:1025EC000000000000F0474500F047452D000000BA
:1025FC0000000000000000000000000000000000CF
:10260C00280A0000010000000000C8439A99193FF5
:10261C000000204200F047450000000000F0474554
:10262C0000F047452E0000000000000000000000F4
:10263C000000000000000000280A0000010100005A
:10264C006666A63F0AD7A33DCDCC4C3E00000000E9
:10265C00000000000000F04100007A442E00000051
:10266C00000000000000000000000000010000005D
:10267C00000000000000000000000000000000004E
:10268C00010000003200000000127A00010000007E
:04269C00100000002A
:0400000508002501C9
:00000001FF
